:020000040000FA
:060000000210320205DFD0
:03002B00020D942F
:030033000209A21D
:0300530002050E95
:03006B0002095730
:03007B00020980F7
:1000830002057001010000000000F8FF07FFFF00F8
:10009300000504000000030001FFFFFF1410270008
:1000A300000020FD000206FFFF1E8819000000006B
:1000B300000000000000000000000000000000003D
:1000C300000001040000461A000000E8030000FFDE
:1000D300FF971A0188130000E8030000640064001E
:1000E300B801A0BB0D00A0BB0D0002020207040172
:1000F300051E02051E020A0A010108080103B80BC6
:1001030002803E0102FEFFE8030A050001FFFF0231
:100113000A011401E0050301010F030003000300BA
:1001230003000300030003000300030005000A00AB
:10013300140028004F009E0000009F2C00000000C8
:10014300732B00000000FF000000FF00121051603D
:1001530046121042603DE9687008F618F618F61862
:10016300F622748067F7120183090909748067F71F
:1001730022121042601D1210517005191919801AAC
:10018300120F21701F120EE5C37003E667331919AE
:100193001940071818182208080874FFF618F618EB
:1001A300F618F622120EE560171210DF702192F096
:1001B3001210E87019501720F014080808090909EB
:1001C300E7F61819E7F61819E7F61819E7F62212F1
:1001D30010E860E6E869701F0808E62480F608E482
:1001E30036F618547FB47F0CE654806007F6E418A3
:1001F300F618F622181822E9C6CC08C6CD08C6CED2
:1002030008C6CFC0E0E8C0E0EAC0E0EBC0E009E91F
:10021300F809E7FA09E7FBE6F918E6F8C3EC98ED05
:1002230099EE9AEBC2E7F5F0EFC2E795F0500E6056
:100233000CEBCFFBEACEFAE9CDF9E8CCF8EAA2E77A
:10024300D2E7FAEB33FB13F5F0EEA2E7D2E7FEEFCA
:1002530033FFC5F013A2E730E601B313C5F0C3C003
:10026300E0C0F07F00C39BFB605E9418600F401DED
:1002730014601AD0E023F9D0E0F80203558AF0E9BC
:10028300486003D2F0E4AFF0FAF9F8803BEB30E4D6
:100293000D89F0EA6003D2F0E4AFF0F9CAF8EB306D
:1002A300E30D88F0EF6002D2F0AFF0E4CAC9F8EBD7
:1002B30054076014FBC3EA13FAE913F9E813F8EFE0
:1002C300135002D2E0FFDBEDD0E0C0E030E739C3EA
:1002D300E49FFFF5F0EC98FC42F0ED99FD42F0EE5F
:1002E3009AFE42F0D0E0F9D0E0F8E5F0607AE92335
:1002F300F9EE20E742D8028067C3EF33FFEC33FC0B
:10030300ED33FDEE33FE80EAEC28FCED39FDEE3AE9
:10031300FED0E023F9D0E0F84002801BC3EE13FEC9
:10032300ED13FDEC13FCEF135002D2E0FF08B8000D
:10033300067F7F74FF802EEF3350178CF020F0027E
:1003430060100CBC000C0DBD00080EBE000408E8D4
:1003530060DFE933E813FFEE2313FE4F4D4C8008B3
:10036300E95480FFE4FEFDFCEE33EF33F47004FC4C
:10037300FD7E80D0E0FBD0E0FAD0E0F8D0E0CFC63D
:1003830018CEC618CDC618CCC6F92200121042608A
:100393004F1210516012E7548066F6120F2170114C
:1003A3001210DF703B090909F4F618F618F618F66F
:1003B30022120EE570151210E808080860EAE644F8
:1003C3007FF618768018E4F618F6221210E8601605
:1003D3001210DF7012E4F608F608F608E65480F609
:1003E30009090918181822EAC0E0EBC0E0ECC0E0E4
:1003F300EDC0E0E687F0A4FBACF008E687F0A42CA0
:10040300FCE435F0FA1809E687F0A42C4B6002747B
:1004130001CA35F0FCE433FB09E687F0D2F7A42CDC
:10042300CB35F0FC1908E687F0A42BCC35F0FBE4C0
:1004330033FD0819E687F0D2E7A42C4ACB35F0CD7B
:100443003400FC09E687F0D2E7A42DCC35F0FDE4B7
:1004530033FA0918E687F0D2F7A42CCD35F0CA3465
:1004630000FC08E687F0D2E7D2F7A42ACC35F07A6D
:100473007E20E70B0ACB33CBCD33CDCC33CC33CB80
:100483003350147004ED30E00ED2F1E4CD3DCDCC09
:100493003CCC3B5005DA05C2F1EB547FC63308E68A
:1004A3003392F0FBE73309E733C39A502D2B7019CE
:1004B3000C0D4C4D70151806E608C333700D20F172
:1004C3000AA2F013F6E418800B4024E4F630F0029D
:1004D300768018F618F618F68024D33B145010745F
:1004E300FFA2F013F6187680E418F618F6800FA230
:1004F300F013F618E63303F618ECF618EDF6D0E031
:10050300FDD0E0FCD0E0FBD0E0FA22C0E074F112B1
:1005130008F8A2AFE433F509D2AF85A708AFA1EF7E
:100523005508FE74105E60061213F475A1EF74088B
:100533005E60081213FA75A1F78024EFA2E092F02F
:10054300E508A2E082F05017906198E0F89005F476
:10055300E0C398A2D265D0335002E8F075A1FE75CE
:100563002300E509A2E092AF7F02020A13C0E07400
:10057300F21208F8A2AFE433FED2AF9061A4E0F820
:10058300759B00E59158540860087591F71214485B
:100593008023E59158541060087591EF12144E8032
:1005A30014E591A2E092F0E8A2E082F05007E0C2E5
:1005B300E0F01215A49061A3E0F8E5E95854046053
:1005C3000E12157A75E9FB906193E0A2E640F2758D
:1005D3002300EEA2E092AF7F01020A13C0E074F29F
:1005E3001208F8A2AFE433FED2AF9061A5E0F8E5BC
:1005F300BF585404600675BFFB1215BC80D1C3E419
:1006030098F8E499F91206428026C3E49AFAE49B27
:10061300FBE920E7E9120642E498F8E499F922C3DA
:10062300E498F8E499F9120642E498F8E499F9C3D6
:10063300E49AFAE49BFB22EB20E7CFE920E7E0B959
:100643000010BB0008E88AF084F8AAF022E4FBC893
:10065300FA22EB70227B10C833C8C933C933500761
:10066300C39AC3DBF280069A50012ADBEAC833F44B
:10067300C8C933F4C9FA2275F008E4C833C8C933CA
:10068300C933C99AC99B5004C92AC93BD5F0ECFBAD
:10069300C833F4C8E4C9FA221206E630F039120767
:1006A3002B80341206E620F01430E72B74FFFCFB9A
:1006B300FA747F8022E4FCFBFA7480801AB4800809
:1006C300BC00F2BB00EF800F50EBF9E4C39AFAE4ED
:1006D3009BFBE49CFCE499C6CC18C6CB18C6CA188D
:1006E300C6F922E4C9C608CAC608CBC6D333030871
:1006F300CCC63392F0C3947F402E94184019C9B9E5
:100703000704CACBCC225025C309CA33CACB33CB87
:10071300CC33CC33D9F422F4600DC9CCC313CB133F
:10072300CBCA13CAD9F6CC22E4FCFBFA2214FCFB95
:10073300FA22080808EAC0E0EBC0E086F0E7A4FA72
:10074300180986F0E7A42AFA180986F0E7A42AFA1A
:10075300180986F0E7A42AFA1986F0E7A4FBE5F066
:100763002AFA190886F0E7A42BFBE5F03AFA1908F0
:1007730086F0E7A42BFBE5F03AFA18180986F0E7B0
:10078300A4C5F02BFBE43AFA1908E7C5F0C6A42682
:10079300F6E5F03BFBE43AFA1886F0E7A4F6E5F059
:1007A3000826F6E43B08F6E43A08F6D0E0FBD0E08E
:1007B300FA22E4CFC0E0E4CEC0E0E4CDC0E0E4CC74
:1007C300C0E075F020E626F608E633F608E633F6D1
:1007D30008E633F6181818EC33FCED33FDEE33FE60
:1007E300EF33FFC3EC9709ED9709EE9709EF9719DC
:1007F3001919400FFFEC97FC09ED97FD09EE97FEE1
:10080300191906D5F0BFECF709EDF709EEF709EF73
:10081300F7191919D0E0FCD0E0FDD0E0FED0E0FFDD
:10082300222521C582C0E0E52234FFC583C0E0E56F
:1008330021C3958224F810AF088583228582218005
:1008430008858322858221D2AFCEF0A3E520F0A3D1
:100853007808E608F0A3DEFAEFF0A3E58124FAF8BE
:10086300E608F0A3E608F0A3E608F0A30808E60804
:10087300F0A3E608F0A315811581D0E0FED0E0F8DF
:10088300158115811581E8C0E0EEC0E0221210CA7F
:10089300B900030208E2E490050178327919800275
:1008A300F0A3D8FCD9FA78239000867A01BA000223
:1008B3008007E493A3F608DAF97A327B1D90008768
:1008C30078C979018015E493A3AD82AE838A828BC4
:1008D30083F0A3AA82AB838D828E83D8E9D9E7758F
:1008E30082577583DF7404120D767582CE75832764
:1008F3007400120D76C0D02521C582C0E0E52234F4
:10090300FFC583C0E0E521C3958224F310AF0885BA
:1009130083228582218008858322858221D2AFC8E4
:10092300F0A3E9F0A3EAF0A3EBF0A37908E709F059
:10093300A3D8FAECF0A3EDF0A3EEF0A3EFF0A3D06D
:10094300E0F0A3D0E0F0A3D0E0F0A3E520F0A3E52E
:10095300F0F0A322C0E074F21208F8A2AFE433FE71
:10096300D2AFE589547C600312132E538983C2C529
:10097300752300EEA2E092AF7F01020A13C0E0C02C
:10098300D0E8C0E0A8A8D2AFE58A858A8AC2EB7511
:100993002300E8A2E792AFD0E0F8D0D0D0E032C095
:1009A300E0C0D0E8C0E0A8A8D2AFE58B858B8BC2AE
:1009B300E880DCE9799EC608CAC608CBC608CCC65F
:1009C300C370207996CACBCC7019798ECBCC7013B7
:1009D3007986CC700EF9802ACA33CACB33CBCC3399
:1009E300CC331930E7F2CCCBCA3350147004EA305D
:1009F300E00DE4CA3ACACB3BCBCC3CCC500209C392
:100A0300E913C6CC182313C6CB18C6CA18C6F922D5
:100A1300852283852182E0C0E0A3E0F9A3E0FAA365
:100A2300E0FBA37808E0F608A3DFFAE0FCA3E0FD0F
:100A3300A3E0FEA3E0FFA3E0C0E0A3E0C0E0A3E0E7
:100A4300F5D0A3E0F520A3E0A3F5F010AF0885836C
:100A5300228582218008858322858221D2AFD0829C
:100A6300D083D0E0F8D0E032FF75F0108E248F25CC
:100A7300858229858328852182852283E0CEA3E090
:100A8300CF852982852883EBC9EAC8EDCBECCAC39D
:100A9300E833C8E933C9EA33CAEB33CBC3EA9EF57B
:100AA30027EB9FF526B35004AB26AA27EC33CCEDF6
:100AB30033CDD5F0DAAE24AF2522121042601C12DA
:100AC300105160171210E870071210DF7001D32263
:100AD300C0D01210DF7006D0D0B322C32233D0D0DF
:100AE300501430E0F6C3E7960809E7960809E7963D
:100AF3000809E796B32220E0D5E6970809E69708A8
:100B030009E6970809E697B322D083D082ECC0E0C8
:100B1300EDC0E0E493A3FCE493A3FDED4C600D1260
:100B23000BE4EC24FFFCED34FFFD80EFE493A3FC26
:100B3300E493A3FDED4C600D120C81EC24FFFCED5E
:100B430034FFFD80EFD0E0FDD0E0FCE493A3C0E0F0
:100B5300E493C0E022852283852182E0A3FEE0A303
:100B6300F5207808E0A3F608DFFAE0A3FFE0A3C0CE
:100B7300E0E0A3C0E0E0A3C0E0E0A3C0E0E0A3C0E6
:100B8300E010AF0885822185832280088582218534
:100B93008322D2AFD083D082020D7CD083D082E96E
:100BA300C0E0E493A3C386F0C5F095F0F908E4939D
:100BB300A386F0C5F095F0700BE493A3C3994005A9
:100BC300E9048002A3E475F002A42582F582E5F02E
:100BD3003583F583D0E0F9E493A3C0E0E493C0E068
:100BE30022C0E0C3E49396087401939618400FE47F
:100BF3009366700808740193661870007019A3A3B4
:100C0300C3E49396087401939618A3A3400DD0E010
:100C1300D0E0D0E0020B48A3A3A3A3A3A3D0E02278
:100C23007404800474028000CCC0E0EDC0E0E521D0
:100C3300C39CCCAD2250011D10AF068C218D2280A8
:100C4300068C218D22D2AF120CF8D0E0FDD0E0FC4F
:100C53002274028000CCC0E0EDC0E0E521C39CCC4F
:100C6300AD2250011D10AF068C218D2280068C21F0
:100C73008D22D2AF120CD6D0E0FDD0E0FC22C0E032
:100C8300C0F088F0E49366700808740193661870E6
:100C930000A8F0A3A3700BD0F0D0E0D0E0D0E00226
:100CA3000B48A3A3D0F0D0E022D083D082CCC0E005
:100CB300E493A36006120D571470FAE493A360063D
:100CC300120E7B1470FAD0E0FCE493A3C0E0E4932B
:100CD300C0E022CAC0E0E493A3C582CCC582C58329
:100CE300CDC583F0A3C582CCC582C583CDC583DAC8
:100CF300E5D0E0CA22CAC0E0E0A3C582CCC582C564
:100D030083CDC583F0A3C582CCC582C583CDC583FE
:100D1300DAE6D0E0CA22700908080822601618181B
:100D230018C6C333C608C633C608C633C608C63397
:100D3300C6D5E0EA22C008C3E096F50808A3E0960A
:100D4300420808A3E096420808A3E096450870010C
:100D5300D3D00822C0E0E493A3D39C5010E493A320
:100D6300C39C400AD0E0D0E0D0E0020CC9A3A3A307
:100D7300D0E022C09FF59FE473D09F22D083D0821E
:100D8300C09FE493C0E0740193C0E0740293F59FA5
:100D930022C0E0C0D0E8C0E0A8A8D2AFC2C7752384
:100DA30000E8A2E792AFD0E0F8D0D0D0E0327404EC
:100DB300800A74038006740280027401C0E0F404A4
:100DC300120DE7D0E012108D2200C0D0252110AF04
:100DD30008F521500C05228008F52150020522D286
:100DE300AFD0D0222521F58210AF08F521400C1594
:100DF300228008F52140021522D2AF85228322BB2F
:100E03000102E722C082C08389828A83BB0003E098
:100E13008002E493D083D082226016080808C6C3F8
:100E230013C618C613C618C613C618C613C6D5E00C
:100E3300EA22C3E0C696F608A3E0C696F608A3E046
:100E4300C696F608A3E0C696F6222521F8E43522D5
:100E5300F9222521FAE43522FB222521FCE435225F
:100E6300FD22252110AF08F521400C15228008F53D
:100E73002140021522D2AF22C0E0E493A36C700993
:100E8300D0E0D0E0D0E0020CC9A3A3D0E022E0661A
:100E9300701008A3E066700A08A3E066700408A354
:100EA300E06622C3E09608A3E09608A3E09608A3B1
:100EB300E096A2D265D03322C3E7960809E79608E5
:100EC30009E7960809E796A2D265D03322E7667050
:100ED300100809E766700A0809E76670040809E75D
:100EE3006622191919E70947097009E727097005E7
:100EF300E733F4220922C3E096F008A3E096F00852
:100F0300A3E096F008A3E096F022C3E697F608095B
:100F1300E697F60809E697F60809E697F622181801
:100F230018E60846087009E626087005E633F42239
:100F33000822C3E493960874019396087402939667
:100F4300087403939622E026F608A3E036F608A376
:100F5300E036F608A3E036F622E627F60809E63778
:100F6300F60809E637F60809E637F6227004226028
:100F73000D18C6C333C608C633C6D5E0F41822E03D
:100F830056F008A3E056F008A3E056F008A3E05695
:100F9300F022E657F60809E657F60809E657F60879
:100FA30009E657F622E026F008A3E036F008A3E0AE
:100FB30036F008A3E036F022E056F608A3E056F632
:100FC30008A3E056F608A3E056F622E647F608091A
:100FD300E647F60809E647F60809E647F622E4C3BA
:100FE30096F608E496F608E496F608E496F6226088
:100FF3000D08C6A2E713C618C613C6D5E0F322C66A
:10100300F4C608C6F4C608C6F4C608C6F4C622C3A6
:10101300E09608A3E09608A3E09608A3E09622C30F
:10102300E7960809E7960809E7960809E7962275FF
:10103300D00075813F75210175220500020890E6F5
:10104300084608C3134608336002E633F422E7096F
:101053004709C3134709336002E733F422600C08DE
:10106300C6C313C618C613C6D5E0F422E6F008A318
:10107300E6F008A3E6F008A3E6F022E0F608A3E012
:10108300F608A3E0F608A3E0F622CAC0E0E6F0A360
:1010930008DAFAD0E0FA22E0FAA3E0FBA3E0FCA32B
:1010A300E0FD22EAF0A3EBF0A3ECF0A3EDF022E0E5
:1010B300F8A3E0F9A3E0FAA3E0FB22E8F0A3E9F048
:1010C300A3EAF0A3EBF022E5C754F84401F5C7798E
:1010D30001222521F582E43522F58322E7271947EA
:1010E3001947194722E62618461846184622C2AF62
:1010F30075D69F02000022120D7FCFD302120D7FFF
:1011030016D702120D7F75D902120D7F0CDA021267
:101113000D7F39DA02120D7F86DA02120D7F0EDBA4
:1011230002120D7FC9DB02120D7F2CDC02120D7F30
:1011330070DC02120D7F0ADD02120D7F88DD0212C0
:101143000D7FBBDD02120D7FC9DE02120D7FE9DECA
:1011530002120D7F3DDF02120D7F1DE002120D7F93
:101163001FE202120D7FC1E202120D7F16E5021289
:101173000D7F9AE502120D7F9FE802120D7FDAEAD6
:1011830002120D7F1EEB02120D7F7DEC02120D7F0A
:1011930087EC02120D7FD6EC02120D7FA6EE02122F
:1011A3000D7FBEC704120D7FF2C704120D7F37C82F
:1011B30004120D7F3AC904120D7F87C904120D7FF3
:1011C300A8C904120D7FC8CA04120D7FADF1011224
:1011D3000D7F29F201120D7F5CF201120D7F8AF25D
:1011E30001120D7FC8F201120D7F03F501120D7F6D
:1011F30022F501120D7F67F501120D7FFDF5011236
:101203000D7F49F601120D7FDDF601120D7FB5F753
:1012130001120D7F11F801120D7F6FF801120D7F7E
:10122300ECF801120D7F22F901120D7F6DF9011205
:101233000D7F93F901120D7F23FA01120D7FBAFA84
:1012430001120D7F06FB01120D7F37FB01120D7F8B
:101253006EFB01120D7FF4FC01120D7FBEFD011226
:101263000D7F8EFE01120D7F7FC004120D7FA1C082
:1012730004120D7FC1C004120D7FECC004120D7F58
:101283002AC204120D7F98C204120D7F6AC304128E
:101293000D7F01C404120D7FEFFF01120D7FF4FFD8
:1012A30001120D7FF7FF01120D7F69D604120D7F26
:1012B30030D704120D7F42D704120D7FB5D7041225
:1012C3000D7F44ED04120D7F55ED04120D7FF3EDF8
:1012D30004120D7FFEED04120D7F16EE04120D7F36
:1012E300FAFF01120D7FDCFF01120D7F25EE0412C0
:1012F3000D7F35EE04120D7F4AEE04120D7FFEEED4
:1013030004120D7F6EE904120D7FF1E904120D7FC3
:1013130057EA04120D7F35E404120D7F5DE40412D5
:101323000D7F80E404120D7FF5E404120D7F3FE589
:1013330004120D7F6AE504120D7F81E504120D7F0F
:10134300BC7B00120D7FCA7B00120D7F437C001211
:101353000D7F1B7D00120D7FDE7E00120D7F2E7F21
:1013630000120D7F6A7F00120D7FF87F00120D7F40
:101373004DDD04120D7F85DD04120D7FD0DE0412D6
:101383000D7F54DF04120D7F36B704120D7F62B751
:1013930004120D7FA6B904120D7FE6B904120D7F66
:1013A30026BA04120D7F3ABA04120D7F53BA0412FF
:1013B3000D7F45BB04120D7FEABB04120D7FFEBBFC
:1013C30004120D7FCDE204120D7FF1E204120D7FB2
:1013D3000AE304120D7F3CE304120D7F6CE3041255
:1013E3000D7F99E304120D7FA3E304120D7F05E43F
:1013F30004120D7F14E404120D7F1EE404120D7F0A
:101403002BE404120D7FC4D304120D7FE4D3041222
:101413000D7F23D404120D7F3ED404120D7F5DD4BF
:1014230004120D7FC3D404120D7FCCD404120D7F9C
:1014330029D504120D7F38D504120D7F5CD5041213
:101443000D7F1DD604120D7F2AD604120D7F3BD6C5
:1014530004120D7F7D7F00120D7FC57F00120D7F6B
:10146300F17F00120D7F85B204120D7FDFB30412EA
:101473000D7FEDB304120D7F00B404120D7F15B47C
:1014830004120D7F2AB404120D7F3DB404120D7FA4
:10149300B1B404120D7F16B504120D7F9EB504126C
:1014A3000D7F1AB604120D7FDEB604120D7FEEB661
:1014B30004120D7FFDB604120D7F5EF004120D7F42
:1014C30082F004120D7FAAF004120D7FD2F00412F1
:1014D3000D7FC6D804120D7FEDD804120D7F0BD9F2
:1014E30004120D7F7ED904120D7FF1D004120D7FFB
:1014F3000AD104120D7F16D104120D7F2AD10412D2
:101503000D7F48D104120D7F52D104120D7F5CD19F
:1015130004120D7F6FD104120D7FF5D104120D7FDC
:101523006AD204120D7F99D204120D7FE7D20412FE
:101533000D7F36D304120D7F51D304120D7F5BD37D
:1015430004120D7F6CD304120D7FAFD304120D7FF1
:10155300FFF004120D7F4AF104120D7F7D940412F3
:101563000D7FA79404120D7FC49404120D7FD794AA
:1015730004120D7FED9404120D7F4B9504120D7F21
:10158300839504120D7F779904120D7FBC9A041280
:101593000D7FEF9A04120D7F529B04120D7FB29CB4
:1015A30004120D7FDA9C04120D7FEF9C04120D7F51
:1015B300FF9C04120D7F439D04120D7F9E9D041218
:1015C3000D7FAE9D04120D7F3EE804120D7F58E897
:1015D30004120D7F80E804120D7F99E804120D7F39
:1015E300BDE804120D7FDBE804120D7FF2E804125C
:1015F3000D7F20E904120D7F3BE904120D7F04EFF8
:1016030004120D7F48EF04120D7F39C404120D7FBD
:1016130049C404120D7F4EC504120D7F80C5041208
:101623000D7FB0C504120D7FD3C504120D7FEAC52B
:1016330004120D7F24C604120D7F89C604120D7F88
:10164300CBC604120D7F0AC704120D7F3BC70412D9
:101653000D7F66C704120D7F97E504120D7FA9E580
:1016630004120D7FBDE604120D7FC0E604120D7F48
:1016730070EB04120D7FA6EB04120D7FBCEB04127A
:101683000D7FFEEB04120D7F0EEC04120D7F52EC66
:1016930004120D7F9EA504120D7FE1A504120D7F98
:1016A30046A604120D7F63A604120D7F05A704123C
:1016B3000D7F0EA704120D7F53A704120D7F7CA785
:1016C30004120D7F89A704120D7F04A804120D7F55
:1016D3008FA804120D7FD4A804120D7F1FA9041232
:1016E3000D7F84A904120D7FA7A904120D7F18AAE8
:1016F30004120D7F6DAA04120D7FA8AA04120D7F98
:10170300DDAA04120D7FEFAA04120D7F01AB0412B0
:101713000D7F20AB04120D7F29AB04120D7FDCABD0
:1017230004120D7F1FAC04120D7F5DAC04120D7FFC
:10173300EDE604120D7F2DE804120D7F56F104121D
:101743000D7F17DB04120D7F4DDB04120D7F95DB3C
:1017530004120D7FEEDC04120D7FD1DB03120D7F2B
:10176300EADC03120D7F24DD03120D7FD2DE0312A8
:101773000D7F00DF03120D7F66E103120D7FA6E1EB
:1017830003120D7F4AE303120D7FDAE303120D7F89
:101793002EE403120D7FD0E403120D7F12E5031232
:1017A3000D7F54E503120D7FB1E603120D7FFFE7B2
:1017B30003120D7F36EA03120D7F64EA03120D7FD5
:1017C3008BEA03120D7F94EA03120D7FEBEA0312F7
:1017D3000D7F86EB03120D7F8EEE03120D7F15EF47
:1017E30003120D7FB6EF04120D7FCEEF04120D7FAF
:1017F300D8EF04120D7F2CF004120D7F50FB021260
:101803000D7F66FB02120D7F07FC02120D7F46FC63
:1018130002120D7F63FC02120D7F94FC02120D7FF6
:10182300E1FC02120D7F14FD02120D7F4FFD021227
:101833000D7F4AFF02120D7FB2FF02120D7F70EA85
:1018430004120D7FCFEA04120D7F0DEB04120D7FFE
:101853004EEB04120D7FC4FF02120D7FB3F104128D
:101863000D7F008002120D7F0C8002120D7F6E80AF
:1018730002120D7F788002120D7F098102120D7F03
:10188300458102120D7F358202120D7F8282021280
:101893000D7F118302120D7F478302120D7FC283D6
:1018A30002120D7F918502120D7F8B8702120D7F2D
:1018B300698802120D7F878902120D7FCD8B021278
:1018C3000D7F108D02120D7FBF8D02120D7F5F926F
:1018D30002120D7F539302120D7FF79302120D7FB5
:1018E3001C9402120D7FB89402120D7FCD94021244
:1018F3000D7FF19402120D7F5F9502120D7F7C958F
:1019030002120D7FA69502120D7F3C9702120D7FE6
:101913005D9702120D7F039802120D7F4B980212FE
:101923000D7FA09802120D7F409902120D7FA4999A
:1019330002120D7F029A02120D7FAB9A02120D7FE3
:10194300199B02120D7F4C9B02120D7FBA9B021250
:101953000D7FF59C02120D7F6B9E02120D7F089F77
:1019630002120D7F46A102120D7FAFA102120D7F5D
:10197300D9A102120D7FF5A302120D7F9CA60212BC
:101983000D7FC5A702120D7FDE9D04120D7FF69D0C
:1019930004120D7F139E04120D7F689F04120D7FA6
:1019A30021A204120D7F43A204120D7F35A304125A
:1019B3000D7FBFA304120D7F11A504120D7F41E11A
:1019C30004120D7FFBE104120D7F9DE204120D7FD3
:1019D30089AC04120D7F16AD04120D7F8FAD041276
:1019E3000D7F2EAE04120D7F4FAE04120D7F2BAF71
:1019F30004120D7F98B004120D7F7DEC04120D7F4D
:101A03000DC703120D7F3CC703120D7FB4C703122A
:101A13000D7FB7C803120D7F13C903120D7F8ACA46
:101A230003120D7FA6CA03120D7FF8CA03120D7F9E
:101A33003BCB03120D7F4ECB03120D7FA0CB0312C2
:101A43000D7F5BCC03120D7FD5CC03120D7FFFCC32
:101A530003120D7F37CD03120D7FB3CE03120D7F1B
:101A63008CCF03120D7FD5D003120D7FA8D10312A3
:101A73000D7F30D203120D7F78D203120D7F92D2E5
:101A830003120D7FD9D203120D7FF9D203120D7FFA
:101A93008FD303120D7F15D403120D7F6FD403125E
:101AA3000D7FB3D403120D7F44D703120D7F67D884
:101AB30003120D7FA3D803120D7F95D903120D7F57
:101AC300BDD903120D7FC0D903120D7FCAD90312EA
:101AD3000D7FDDD903120D7F5CDA03120D7F92DADD
:101AE30003120D7FBEDA03120D7FE5DA03120D7FB9
:101AF30009DB03120D7F7ADB03120D7F88DB0312F0
:101B03000D7FBBDB03120D7F67FF01120D7F73FF98
:101B130001120D7FA7FF01120D7FF47F00120D7FCD
:101B2300F3B003120D7F16B103120D7F5CB20312E3
:101B33000D7FA5B203120D7F0DB303120D7F6BB39F
:101B430003120D7F6EB303120D7FBAB303120D7F21
:101B53002DB403120D7FB5B403120D7FB8B4031275
:101B63000D7F42B503120D7F83B503120D7F66B956
:101B730003120D7FFFBA03120D7F5DBB03120D7FAE
:101B8300D8BE03120D7F429004120D7F80C1031251
:101B93000D7F1EC203120D7F29C303120D7F7AC569
:101BA30003120D7F64EF03120D7F0EF003120D7FFE
:101BB30074F003120D7F8DF003120D7F09F10312F0
:101BC3000D7F5FF103120D7FAFF103120D7F16F24C
:101BD30003120D7F8FF303120D7FBDF403120D7FEC
:101BE30042F503120D7F48F703120D7FF1F703123D
:101BF3000D7F9AF803120D7F5CF903120D7F05FB2D
:101C030003120D7F10D302120D7F5EFD03120D7FB1
:101C130076FE03120D7F008003120D7F7480031282
:101C23000D7FBC8003120D7F008103120D7F49815C
:101C330003120D7F938103120D7FCB8103120D7F5E
:101C4300498203120D7FA38203120D7FF7830312D0
:101C53000D7F888403120D7FE08403120D7FFA84C5
:101C630003120D7F228503120D7F7A8503120D7FE8
:101C7300E98703120D7F088803120D7FEC88031296
:101C83000D7F1C8A03120D7F998A03120D7FE88A48
:101C930003120D7F498B03120D7FEF8B03120D7F10
:101CA300BD8D03120D7FBD8E03120D7F3B9003127A
:101CB3000D7F1C9203120D7F829403120D7F3296C7
:101CC30003120D7F029703120D7F709703120D7F8E
:101CD300879703120D7F7F9803120D7F6F9903126D
:101CE3000D7FDA9903120D7F10CE04120D7F5CCFA6
:101CF30004120D7F19D004120D7F7DD004120D7FC5
:101D0300EACA04120D7F05CB04120D7F49CB0412DE
:101D13000D7F6FCB04120D7F95CB04120D7FADCBDE
:101D230004120D7F10CC04120D7F25CC04120D7FFD
:101D330048CD04120D7F51CD04120D7F5ACD0412EC
:101D43000D7F63CD04120D7F6DCD04120D7F12BC88
:101D530004120D7F11C004120D7F16C004120D7FF3
:101D630018C004120D7FCEDF04120D7FBFFF0312D4
:101D73000D7FF2AB02120D7F25AC02120D7F91ACE9
:101D830002120D7F2CAD02120D7FC9AD02120D7F21
:101D93000EAE02120D7F30AE02120D7F49AE02125B
:101DA3000D7F6FAE02120D7F91AE02120D7FCFAE8B
:101DB30002120D7F13AF02120D7F35AF02120D7F9A
:101DC30097AF02120D7F5EB002120D7F15B10212A2
:101DD3000D7F87B102120D7F52B202120D7FA5B2A1
:101DE30002120D7F0BB302120D7F45B302120D7F5A
:101DF30097B302120D7F05B402120D7F70B4021265
:101E03000D7F73B402120D7FF4B402120D7F8BB5F4
:101E130002120D7F0BB602120D7F2AB602120D7F3E
:101E23008EB702120D7F9BB702120D7FA7B8021265
:101E33000D7FB4B802120D7FBDB802120D7F95BAA3
:101E430002120D7FAFBB02120D7F28BC02120D7F61
:101E53009ABC02120D7FBCBC02120D7F50BD021250
:101E63000D7F24BF02120D7FFBC202120D7F0FC331
:101E730002120D7F1FC302120D7F29C302120D7FB1
:101E830032C302120D7F3BC302120D7F45C3021200
:101E93000D7F72C302120D7F9BC302120D7FA6C377
:101EA30002120D7FCAC302120D7FEEC302120D7F11
:101EB30058C402120D7F9EC402120D7FBBC40212CE
:101EC3000D7F38C502120D7F6FC502120D7FAEC59F
:101ED30002120D7FFBC502120D7F81C602120D7F18
:101EE3004FC802120D7FD2C802120D7FB6C902126B
:101EF3000D7F1DCC02120D7F76CC02120D7FC0CC5C
:101F030002120D7F1BCE02120D7F50CE02120D7FE7
:101F1300A2CE02120D7F57CF02120D7F06D00212FE
:101F23000D7F43D002120D7FD8D002120D7F44D112
:101F330002120D7FFF2E00120D7F312F00120D7F35
:101F43005F2F00120D7F353100120D7F1532001205
:101F53000D7F6D3200120D7FA83300120D7FF43315
:101F630000120D7F1D3700120D7F103A00120D7FF6
:101F7300603B00120D7FF63B00120D7F023C001206
:101F83000D7F343C00120D7FB73D00120D7F683F7B
:101F930000120D7FFC3F00120D7F3F4000120D7FAA
:101FA300BD4000120D7FDA4000120D7F0A4100127E
:101FB3000D7F3F4100120D7F0F4200120D7FB8428B
:101FC30000120D7F3E4500120D7F5E4600120D7F0D
:101FD300494700120D7FCB4700120D7FFF4B0012C4
:101FE3000D7F3C4C00120D7F944C00120D7FC74CAB
:101FF30000120D7F314D00120D7F674D00120D7FD2
:10200300F24D00120D7F4A4E00120D7F214F001238
:102013000D7FDA4F00120D7F755000120D7F7D5337
:1020230000120D7F995400120D7F3C5800120D7F52
:10203300305900120D7F335900120D7F625900127F
:102043000D7F685B00120D7F415C00120D7F845C85
:1020530000120D7FDA5D00120D7F195E00120D7FF5
:10206300A25E00120D7FD65E00120D7F9B5F0012F1
:102073000D7FB36100120D7F246200120D7F646235
:1020830000120D7FF26200120D7F146400120D7FA7
:10209300D66400120D7FDD6600120D7FF566001217
:1020A3000D7F096700120D7F416700120D7F6F6777
:1020B30000120D7FEE6800120D7F136A00120D7F70
:1020C300706A00120D7F226B00120D7F496B0012A4
:1020D3000D7F106C00120D7FA86C00120D7FCE6E69
:1020E30000120D7F036F00120D7F666F00120D7FCC
:1020F300957000120D7F3D7100120D7F6E710012FD
:102103000D7F867100120D7F157200120D7FC97449
:1021130000120D7FA17600120D7FBD7600120D7F98
:10212300D97600120D7FA77700120D7F9A7B0012DC
:102133000D7FCB8701120D7FFD8701120D7FEC8B85
:1021430001120D7F388C01120D7F7E8C01120D7FE1
:10215300208D01120D7F7C8D01120D7FC18D011227
:102163000D7F088F01120D7F1C9001120D7F0B94C0
:1021730001120D7F8F9401120D7F9C9501120D7F2B
:10218300F89501120D7FE89701120D7F5D980112FA
:102193000D7F679801120D7F749801120D7F9F9830
:1021A30001120D7F869901120D7F309A01120D7F66
:1021B300AE9A01120D7FCE9A01120D7FF79A01128A
:1021C3000D7F199B01120D7F799D01120D7F3F9E9B
:1021D30001120D7F849E01120D7F019F01120D7F5D
:1021E300B29F01120D7FE49F01120D7F2AA00112FD
:1021F3000D7F66A001120D7FB6A001120D7F0AA10B
:1022030001120D7F60A101120D7FACA101120D7FA0
:1022130019A201120D7F94A201120D7F5FA4011276
:102223000D7F5FA501120D7F84A601120D7FC3A947
:1022330001120D7FD6AC01120D7F93AD01120D7FFC
:10224300D7AD01120D7F87AF01120D7F9BAF011236
:102253000D7FA5AF01120D7FAFAF01120D7FBBAF95
:1022630001120D7FD7AF01120D7F82B001120D7FD6
:10227300C1B001120D7FCBB001120D7FD5B0011299
:102283000D7F45B101120D7F90B101120D7FA5B2F3
:1022930001120D7F01B301120D7F82B301120D7F75
:1022A30041B401120D7F4AB501120D7F7EB60112B2
:1022B3000D7F6CB701120D7F84B701120D7FDFB75D
:1022C30001120D7FFDB701120D7F45B801120D7F7D
:1022D3006CB801120D7F07B901120D7FCDB9011240
:1022E3000D7F5FBA01120D7FD9BA01120D7FF3BBC7
:1022F30001120D7FA0BC01120D7FC8BD01120D7F1D
:1023030018BE01120D7F7CBE01120D7FDEBE0112CD
:102313000D7F0CBF01120D7F30BF01120D7F65BF12
:1023230001120D7F96BF01120D7FC9BF01120D7FF0
:10233300E9BF01120D7F51C001120D7F45C101128A
:102343000D7FA0C101120D7FC9C101120D7F51C2C2
:1023530001120D7FD4C201120D7FFFC201120D7F46
:10236300E4C301120D7F3BF002120D7F73F00212E2
:102373000D7F94F002120D7FD6F002120D7F38F11B
:1023830002120D7F42F102120D7F52F102120D7FF4
:102393008DF102120D7F6DF502120D7F5AF70212B5
:1023A3000D7F40F902120D7FD7F902120D7F79FAE2
:1023B30002120D7FE6C501120D7F64C601120D7F67
:1023C300C0C601120D7F0BC701120D7F26C7011274
:1023D3000D7F51C701120D7F6EC701120D7F7AC7A2
:1023E30001120D7F11C901120D7F2AC901120D7F40
:1023F300AFC901120D7FC2C901120D7FE1C90112DC
:102403000D7F85CA01120D7F06CC01120D7FB9CD58
:1024130001120D7F4FCE01120D7F52CE01120D7F9F
:10242300C2CE01120D7FE0CE01120D7F77CF0112D4
:102433000D7FBFCF01120D7FC2CF01120D7F88D058
:1024430001120D7FF5D001120D7F1BD101120D7FFB
:10245300A6D101120D7FC4D101120D7F0AD2011240
:102463000D7FBED201120D7F08D301120D7F37D32A
:1024730001120D7F94D301120D7FC9D301120D7F79
:10248300F5D301120D7F03D401120D7F50D4011235
:102493000D7FC0D401120D7F09D501120D7F55D5D3
:1024A30001120D7F81D501120D7F8CD501120D7F95
:1024B300AAD501120D7F95D601120D7F9FD6011269
:1024C3000D7FDAD601120D7FEAD601120D7FF3D606
:1024D30001120D7F47D701120D7F5BD701120D7FCC
:1024E3008AD801120D7FA1D801120D7FB6D801122F
:1024F3000D7F44D901120D7F89D901120D7F15DAA1
:1025030001120D7F20DA01120D7F62DB01120D7FB4
:102513007DDB01120D7FC9DB01120D7F38DC011257
:102523000D7F71DC01120D7F8BDC01120D7FCDDC81
:1025330001120D7F9DDF01120D7F4AE001120D7F15
:10254300B7E001120D7FF7E201120D7F0FE30112D5
:102553000D7F12E301120D7F1EE301120D7F32E3A3
:1025630001120D7F3AE301120D7F6DE301120D7F1E
:102573006FE401120D7FF6E401120D7F66E501128F
:102583000D7FE8E501120D7FA9E601120D7FC8E674
:1025930001120D7F69E701120D7FC6E701120D7F5E
:1025A300C9E701120D7FF6E701120D7F0BE8011257
:1025B3000D7F7FE801120D7FCEE901120D7FD4EA72
:1025C30001120D7F5FEB01120D7F7AEC01120D7F7B
:1025D30042ED01120D7F73ED01120D7F96ED011295
:1025E3000D7F9FED01120D7FCEED01120D7F5EEE8B
:1025F30001120D7F14EF01120D7F89EF01120D7F80
:1026030030F001120D7FA5F001120D7FDCF00112F5
:102613000D7F1AF101120D7F50F101120D7FA18F71
:1026230004120D7FA58E04120D7FCF8D04120D7F32
:10263300D88B04120D7F2B8B04120D7FBD8A0412DD
:102643000D7FC3B003120D7FB9B003120D7F4EB0DF
:1026530003120D7FA2AE03120D7F60AE03120D7F36
:102663007ED202120D7F3DD202120D7F80AD031286
:102673000D7F6AAD03120D7F1ED202120D7FEBD1C7
:1026830002120D7F2BAD03120D7F86AC03120D7F5B
:1026930080A903120D7F6EA703120D7F3BA70312C0
:1026A3000D7FD6A603120D7F69A603120D7F28A600
:1026B30003120D7F61A503120D7FFCA403120D7F8E
:1026C300A7A403120D7F4AA403120D7F21A30312B3
:1026D3000D7FBEA203120D7F08A203120D7F03A27A
:1026E30003120D7FF7A103120D7FAA9E03120D7F24
:1026F300849E03120D7FD6D102120D7FABD102123D
:102703000D7F379404120D7FFF9304120D7FA8935E
:1027130004120D7F119204120D7F539104120D7F49
:10272300299E03120D7FD49D03120D7F959D0312E5
:102733000D7F829D03120D7FB69004120D7F779D4E
:1027430003120D7F539D03120D7F629B03120D7FB6
:10275300E19A03120D7FAC9004120D7F9D9A031230
:102763000D7FADFC03120D7F719A03120D7F5F8AFB
:1027730004120D7F218A04120D7FF48904120D7F48
:10278300C08904120D7F5F8904120D7F47890412EB
:102793000D7F238904120D7FEC8504120D7FB8830E
:1027A30004120D7F9F8104120D7F2E8104120D7F71
:1027B300DD8004120D7F978004120D7F5690041262
:1027C3000D7F008004120D7F11C00300000080FB09
:1027D300E4738F000100BF1D87000100BD1D35009C
:1027E3000400861D250002008A1D260002008C1DA0
:1027F300270002008E1D28000100981D29000100FA
:10280300991D84000400221B86000100401D2A003C
:1028130001009A1D2B0001009B1D2C0001009F1D30
:102823002D0008002E1B2E000100A01D2F0001000B
:10283300A11D30000100A21D31000100A31D3200C3
:102843000100361B33000100371B34000100A41DB7
:1028530036000100381B38000100A51D39000100B6
:102863009E1D83000200BB1D63000100441B640026
:1028730001009C1D650001009D1D6D000100451BAD
:1028830071000800261B66000100BA1D4300010009
:10289300AB1D44000200AC1D45000100AE1D460007
:1028A3000200AF1D470008003C1B48000100B11D9A
:1028B3004B000100B21D04000100BE1DA100010078
:1028C300C21D37000100C11D88000100C01D3C006E
:1028D3000100391B3D000100A61D49000200B31D84
:1028E30067000100461B4D000200B51D4E000100AC
:1028F300B71D4F000200B81D3E000100AA1D510084
:1029030001003A1B52000100A81D53000100A91D3C
:10291300540001003B1B0000000000000700000002
:102923003023171907001000302303190700000094
:102933003023181907001000302304190700000082
:102943003023191907001000302305190700000070
:1029530030231A190700100030230619070000005E
:1029630030231B190700100030230719070000004C
:1029730030231C190700100030230819070000003A
:1029830030231D1907001000302309190700000028
:1029930030231E190700100030230A190700000016
:1029A30030231F190700100030230B190700000004
:1029B300302320190700100030230C1907000000F2
:1029C300302321190700100030230D1907000000E0
:1029D300302322190700100030230E1907000000CE
:1029E300302323190700100030230F1907000000BC
:1029F30030232419070010003023101907000000AA
:102A03003023251907001000302311190700000097
:102A13003023261907001000302312190700000085
:102A23003023271907001000302313190700000073
:102A33003023281907001000302314190700000061
:102A430030232919070010003023151900013636E9
:102A53000101000102010001030100010401060656
:102A630005020000070100340801000F09040101F9
:102A73000D0100FF0E08000017020000190100FFFE
:102A83001A0100011B0100FE1C0100081D020000C9
:102A93001F01000120010001210200002301000F9A
:102AA300240200002601000127010008280200FF7C
:102AB3002A0100072B0102402C0100002D01000117
:102AC3002E0100012F0100FF30010B1D3108000012
:102AD3003A0100083B01000F3C0100013D0100FFEA
:102AE3003E04000042040000460400004A040000C3
:102AF3004E04000052040000560400005A04000073
:102B0300000000002001C587000001002001C787E5
:102B1300000002002001C987000003002001C687CE
:102B2300000004004201C1860000050042017E86C8
:102B33000000060042016D86000007003001CA87CD
:102B4300000000402001C7870000FDFF2101C3876B
:102B5300010020002005481D010021002005491D1A
:102B63000700000030231619070010003023021954
:102B730001037103010301030103010301032203A1
:102B83000203010310030003000300030003000317
:102B930000030003420300032403060300030003AE
:102BA300040312032503230325032303040304035C
:102BB3000003000300034403000300032303000393
:102BC30065032100350381030003050300030003AC
:102BD3000003000325032303010171010101010126
:102BE30011010101310101010101800110016101A4
:102BF3003B00140063017301720162014301000190
:102C0300130106013D013500040112010001000119
:102C13000001000104010401330133013C014401BB
:102C23003201360000010001650100013500810118
:102C330000010501820183010001030271023001D9
:102C430060021102700201020202020280021002FB
:102C530061023A004100630273027202620243029C
:102C630000021302380000020002040212020002F2
:102C730000020002000204020402370037003C0293
:102C8300440200023900000200026502000235021C
:102C93008102000205028202830200020300710026
:102CA30030016000110070003102200350048000E5
:102CB30010006100000014006300730072006200E2
:102CC300430000001300060000000000040012008F
:102CD300000000000000000004000400370037007B
:102CE3003C024400000000000000000065000000FA
:102CF300350081000000050000008300000036005D
:102D03000100060000000F000000000000000000AA
:102D13000000000003FFFF00000403FFFF0000FFAB
:102D2300FF0FF4010005C4040320000100000B00A1
:102D33000000000000000003010F0000000000007D
:102D43000000000000000000000000000000000080
:102D53000000000000000000000000004619701988
:102D63004C1980185219761952198219581980185A
:102D7300521976195E198018000000006419801832
:102D830000000000000000006A1980180000000025
:102D93000000000000000000000000000000000030
:102DA3000000000000000000000000000000000020
:102DB30000000000000000000000CE1B0100CE1B3D
:102DC3000200441B02803E1B03004A1B0400501BED
:102DD3000480561B05005C1B0600681B31007A1B30
:102DE3003300801B3400C827FFFF000003000300EB
:102DF3000400080010001F003E007B00F600EC01F9
:102E0300D703AF075D0FB91E713D000007ECFDFD51
:102E1300FDECDCDCCCBCACAC9C9C8C7C7C6C6C5C3E
:102E23005C5C4C4C3C3C2C2C1C1C03EAF5E5D5D5D6
:102E3300C5B5A5959585857575656555554545351F
:102E43003525251515050AAA2102742105802107B8
:102E53007A210C5C210D6821FF000000160F000091
:102E63000B150B020002220F3300000E0F5A696785
:102E7300426565416C6C69616E63653039D0D1D24E
:102E8300D3D4D5D6D7D8D9DADBDCDDDEDF303016C4
:102E9300181920231A1C1E3000034D4C4651181AD2
:102EA30025050200011916181616182303003030E1
:102EB30017181921301B1D1F30003C40423A3F3F79
:102EC300392F47300C0E020B040B0A0708000F02C0
:102ED3000402010101010902E803000000BE040A23
:102EE3000E0001000300E80304090E031E1E030184
:102EF3000C04280828020C0508150A04C082C083A4
:102F03001211CC901B6F744CF0A3741FF0901B71C3
:102F13007452F0A3741FF0901B737458F0A3741FC2
:102F2300F0901B75745EF0A3741FF0025C3A74F7A3
:102F3300120824901B63E4F0E9901B62F07C3C7D53
:102F43001B7A647B1B121850901DB1E0901B6CF030
:102F5300901B6D7426F0A3741B023EC774F0120815
:102F630024EAFEEBFF548070030230D0901B621200
:102F73003F5C70030230C9EA241B1257C7707CEA16
:102F8300241F1257C764137002A3E0706E8A828BEA
:102F93008312311E901B7D124D59750A00750B006B
:102FA300800D123D9D126E39121754AA0EAB0FEA13
:102FB3004B60488A828B83E0650C7004A3E0650D47
:102FC300702C8A828B83A3A3A3A3E0F50EA3E0F561
:102FD3000FE50A450B8A828B83A3A3A3A360C312C5
:102FE300409F850A82850B83A3A3A3A380B78A0A84
:102FF3008B0B8A828B83124D5580B4E508242A12E9
:1030030057C7FCE5082402F8E43509F9E8FAE9FBB7
:10301300901B7D123205A3A3E06402703C8A828B6D
:1030230083124D59800B88828983A3A3A3A31240E3
:103033009FE849601F88828983E06A7003A3E06B7D
:1030430070E488828983A3A3E06C70DA901DB712C1
:103053005AF7806BECF9121F88850882850983E093
:103063006401704FE5082418123107120DBD126375
:10307300E1120C23E5082412123107120DBDE508F5
:10308300123F50120DB9E508240B1263E5120C2709
:10309300E5082417123EEDE5082402FCE43509FD9A
:1030A300E5082419FAE43509FB1227A4740A120D62
:1030B300CC800CE064027007AA08AB09122066AA50
:1030C30008AB091216B8EEFAEF6480802DEA5402B9
:1030D300600C901DC67401F0EA6402FA8023EA547E
:1030E30008601A121F82EA4B700B901B7F1262BC9E
:1030F3007A08123114EE6408FAEFFB80047A007B3D
:1031030000026A6BF582E43509F583E0F50A780A73
:1031130022FB901B62E0F912182022A3A3E0F50C16
:10312300A3E0F50D227B00901B62E0F912181474E2
:10313300042274F41208248A088B098A828B83A3DD
:10314300A3A3124B51123EF838F583E02409FA1277
:103153006A0370030231F88A828B837402124BC6AE
:10316300850882850983123205E8F0A3E912667D9A
:103173008A828B83A3A3A3A3A3A3A3A3F0E5082419
:1031830003F8E435091231FA123EF83AF583E08E7A
:10319300828B83A3A3A3A3F0EE2409FAE43FFB8E5F
:1031A300828F83A3A3125DA9F5838882E0A2E58EB3
:1031B300828F83A3A3A3A3A3500474018001E4F02B
:1031C300E5082403F5828983124D59EA1252DA3B4A
:1031D300F5831269CA120DB5123EF73B125E9B8E40
:1031E300828F83A3A3127B79120DCCEEFAEFFB90AF
:1031F3001B62126A508016F98882F583E0FAA3E015
:10320300CA22124EF6A3A3227402120DCC7F04022B
:103213000B5874F21208248A088B09ECFAEDFB743C
:103223000E1210D5E0FC1212028A0C8B0DAE0CAFFD
:103233000DEA4F6030AC08AD091211F0E96026AC1D
:1032430008AD09EEFAEFFB1211F6E970148E828FC6
:103253008312408CFAEFFB1211EAAA08AB0912128F
:103263001A7900800279B4024E4574F0120824746E
:10327300F6120E65EAFEEBFF8C088D09750FB38518
:103283002182852283E4F0750E008002050E902EC4
:10329300F5E493F8E50EC3984003023394AA0E7B3A
:1032A3000012123E8A0A8B0BEA4B60E08A828B8300
:1032B300A3A312339B28F0F8C3EE98EF940050CCED
:1032C3007C157D007900AA08AB091216A0850A8235
:1032D300850B83A3A3A3A3126E76E0F8EEC398290C
:1032E30025E0F8E433F9E50A28F582E50B39F5839F
:1032F300A3A3A3A3A3A3123F02A312591E8A0C8B59
:103303000DAC0CAD0DAA08AB09121850850A8285C5
:103313000B83A3E06401700A1263E17401123F148A
:1033230080447401120E5D850A82850B83124D570A
:10333300121226E9603D74091210D5E0C0E0126351
:10334300E1D0E0F074091210D5E064037013740146
:10335300120E5DE508240BFAE43509FB12185080C0
:103363001274011210D512409FE508125904350951
:10337300126E37850A82850B831263ED123F14A305
:10338300A3E0C0E0E50824141263E5D0E0F0750F74
:1033930000A90F740A026A68A3A3A3E0F885218237
:1033A300852283E02274F7120824E9FE8A828B8344
:1033B300A3A3A3A3A3A3E0540860338A828B83A3AC
:1033C300A3A3A3A3A3E0540260218A828B83A3A3B4
:1033D300A3A3A3A3A3A3A3E06406600F74E96E6091
:1033E3000A74CD6E600574F06E7003121F6A024793
:1033F3004474F012082474EF120E65740F1210D582
:103403001261A074081210D5E9F0ECFEEDFF74050B
:103413001210D512450C124730A3E0F912120E74A4
:10342300061210D51261A074061210D512536B70D8
:10343300030236AF123F3CE0FA74061210D5E0F9EE
:10344300121EAA12370FF8A3E0F9E84970030236F7
:10345300AFEE2403F50AE43FF50BEE2406F508E48A
:103463003FF5097C00850882F583124D59850A8250
:10347300850B83E0F912121474031210D51261A0A4
:10348300850A82850B83E0C0E08521828522831231
:103493003708D0E0125480F9852182852283123DBA
:1034A300A4124FD212339EFAA3E0CA2407F582E492
:1034B3003AF583E8F0A3E41261AB2406F582E4381D
:1034C300F583E4126E43124B45120DB5EE123EF82E
:1034D3003F125E9B74031210D5124B512409127BC9
:1034E30073120DCC74291210D5126E701231FF12A3
:1034F30054933A126E37742B1210D5E0C0E0852135
:1035030082852283125332D0E0F074021210D5E484
:10351300F074251210D5780812107E023606740353
:103523001210D5125E638882F5831236F7A3A3A324
:10353300125929FB12122C850E82850F83A3EAF000
:10354300A3EBF074031210D5123708A31236F71247
:103553005B38A2E6500F850E82850F83A3A3A3A336
:10356300A3E0D2E1F074051210D5E0706B850E82F2
:10357300850F83A312409F901BBDE0687003A3E0F7
:10358300697055850E82850F83A3A3A3123ED77559
:103593000C00780C120DBD7808120DB174291210AD
:1035A300D5E0F50C780C120DBD74271210D5120C52
:1035B30027901BCA120C27790074191210D5124DCB
:1035C300291220AE740A120DCC850E82850F83A3B7
:1035D300A3A3A3A3E04405F074021210D5E004FCF6
:1035E3008E828F83124D538E828F83A3A3A3E0F920
:1035F30012121474031210D51261A074021210D5A2
:10360300E004F074031210D512536B606774021256
:1036130010D5E0FA74061210D512409FC3EA98E45D
:1036230099505174021210D51239E18521828522F5
:1036330083E028F8A3E039F9E8240FF50EE439F51F
:103643000F850E82F583E4F074031210D51237024E
:103653006401600302352174051210D57401126AE6
:1036630056F074031210D5125C2A123A04E8F0A340
:10367300E9023545852182852283124D59121EB0F8
:10368300852182852283120C2774261210D5E0FD32
:1036930074251210D5E0FC740A1210D5E0F9EEFA85
:1036A300EFFB121F647402120DCC80438E828F8352
:1036B300A3A3A3E0C0E0740C1210D5D0E0F012680D
:1036C300BFE0C0E0740D1210D5D0E0F07406121004
:1036D300D512536B7009740E1210D574B980077428
:1036E3000E1210D57410F07409120E551220A8741E
:1036F30011026A68E0850E82850F83A3A3A322E0EB
:10370300125458E022E0125458A3A3228521828543
:103713002283EAF0A3EB1253742274F01208247488
:10372300E1120E6574041210D5E9F074031210D57A
:10373300ECF074021210D5EDF08A0E8B0F742F1279
:1037430010D5123120AA0CFB121E9E74011210D543
:10375300E9F0AA0CAB0D121EA474011210D5E0708F
:10376300030239DC852182852283E480158E828FD2
:1037730083A3A3A3A3A3E0D2E3F0852182852283BD
:10378300E0041269AEF8852182852283E0C3984064
:10379300030239D374011210D5E070030239D385C3
:1037A30021828522831239E1E50C28F8E50D39F9E8
:1037B300E8240FFEE439FF8E82F583A3A3A3A3A31A
:1037C300E0A2E040B5750800750A08750B007402A5
:1037D3001210D5E060037508207C087D0079007421
:1037E30005120E551216A08E828F83E0603E901C48
:1037F3000DE06401701AE508D2E3F508750B1012A9
:1038030039F11210D5E8F0A3E912581C74FF807641
:1038130043080C750A0C8E828F83A31239FC126E37
:103823003974051210D574FFF0A3805A7404121072
:10383300D5E06009E508D2E6F508750A0A8E828F9D
:1038430083A3E064FE7003A3E0F4703074121210DB
:10385300D5740412640BF8741D1210D5E8124BC60C
:103863007412120E55121DCC7D007C007900741564
:103873001210D5AA82AB83121BB6800B1239F11238
:1038830010D5E8F0A3E9F074071210D5E508F0129B
:103893003F33C0E074091210D5D0E0F0740A12105F
:1038A300D57401F07405120E5512206C74111210A8
:1038B300D5E060030239B1740D1210D512547B8E1A
:1038C300828F83A3A3A3A3F0740D1210D5124B947C
:1038D300E50AF0A3E50BF074031210D5E0C0E01283
:1038E3004B25D0E0125B386011901C0DE0C0E074F2
:1038F3000D1210D5124B6FD0E0F0740D1210D512CB
:10390300409F850C82850D83A3A3A3A3A31239EA49
:10391300241C12619A126E531239EC125AEA3912AC
:1039230068DEC0E0124B0CD0E01269A3C0E0740D56
:103933001210D5124652D0E01266A4C0E0740D12E4
:1039430010D5124648D0E0F0740D1210D51239FC90
:103953001239EA242A12619A850E82850F83A3A362
:10396300A3A3A3A3A3A3E0126193123F22C0E01277
:103973004634D0E0F0740D1210D5124D59850E82E5
:10398300850F831269B92428F582E43B126E37123E
:103993003F2B1269CA120DB5125E94EA12612C3BD9
:1039A300127B77120DCC7405120E551220728E8283
:1039B3008F83A3A3A3A3A3E0D2E0F074111210D5C5
:1039C300E0600302377074011210D5E01402377CF3
:1039D3007900AA0CAB0D121F70741F026A68E075A0
:1039E300F007A4F8A9F022A3A3124D5DE8228E826A
:1039F3008F83A31240A3740522E0123A04A3A3A366
:103A030022F8A3E0F9850E82850F83A32274F012B6
:103A1300082474E8120E65E9852182852283F08AE1
:103A23000E8B0F8A828B83A3A3A3A3A3A3A3A3E0D9
:103A3300F9121EC88A088B09EA4B7003023AEDE5B6
:103A43000E1252EE123F4B123EE2852182852283F3
:103A5300E06003023AF07C04850E82850F83A3A302
:103A6300A3A3A3A3A3A3E0F9121ECEEE4F607B8E04
:103A7300828F83A3A3A3A312409F74071210D512AE
:103A830062D112409F74091210D5124BF6C0E07434
:103A9300111210D5D0E0126682A3A3A3A3A3A3A3FC
:103AA30012409F740F1210D5126E3974121210D572
:103AB300E4126A5EC8241FF582E438F583125E5F60
:103AC300C413135403FC70027C048E828F83E0F9C9
:103AD3007808120DB9742059FD744059F974031212
:103AE3000E55121F647402120DCC026A667C08859F
:103AF3000E82850F83A3A3A3A3A3A3A3A3E0F91219
:103B03001ECE8B0BEA4B7003023A6EEE4F60DB85E1
:103B13002182852283E0F50C780C120DBD85088285
:103B2300850983A3A3A3A3A3A3A3E0F50C780C1295
:103B33000DBD8A828B83A3A3A3E0FB8A82850B83BB
:103B43001276968A82850B83E0FA8E828F83A3A3F3
:103B5300E0F91227AA7402120DCC023A7274F7121A
:103B6300082474FA120E65E9FE780179017F00805A
:103B73000379000F124ED5E0FCEFC39C5026EF757E
:103B8300F007A4FC85F008AD08EA2CFCEB3DFD1220
:103B930044C4E0A2E050DA540C60D6E0A2E250D371
:103BA300780080CF8A828B83A3A3A3A3A3A3E0700F
:103BB3003DE9A2E0400574016E70338A828B83A3D2
:103BC300A3A3A3A3A37401123EB4E0C0E074031241
:103BD30010D5D0E0124523E0C0E074041210D5D014
:103BE300E0F074051210D5E8125DFE1220A87406E9
:103BF300024741C082C0837901121F70025C3A748C
:103C0300F4120824EA4B901DC66019E4F08A088B6D
:103C130009F50AF50B7808120DB17A021231281250
:103C23000DCC800A7401F07A027B00123115023246
:103C33001074F012082474F3120E6574031210D575
:103C4300E4F0A3F0901B7D123EE274011210D5E460
:103C5300F0A3124BCB04F0901BB7E0A2E350030296
:103C63003D27123EA874091210D51210BE74091212
:103C730010D5780812107E901B7F7808120E3574C9
:103C8300051210D5780812106F123DAB740512108F
:103C9300D5780812101250077A017B00023D987400
:103CA300051210D5780C12107E901DB6E0F5097838
:103CB3000C79081207B5A80CA90D901DB7E0C3989D
:103CC300E4995003E08001E8852182852283F07422
:103CD300091210D5780812107EC008C009C00AC0A6
:103CE3000B74051210D5780C12107E123DAB780CB4
:103CF30079081207B5E4F50AF50BD00FD00ED00DF5
:103D0300D00C780C7908120F0D901B7F780C1210D1
:103D13006F8011123D9D126E39EEFAEFFB121754AC
:103D2300AE08AF09EE4F60658E828F8312339BC35B
:103D330098502DEE2403F8E43FF9E0FA8882898352
:103D4300E0C39AF0602374031210D5124205740184
:103D53001210D5EEF0A3EF1262ECFEA3E0FF80C4D5
:103D63008E828F83A3A3A3E4F08E828F83127B3092
:103D730074011210D512536B8E828F83A3A3A3A356
:103D830060911262C51210D5123DA480897403128A
:103D930010D5124D59740D026A681240A3901B7D11
:103DA30022125E8AA3A3A322901DB5127B38E4F5E9
:103DB3000AF50B2274F01208248A088B09890A7801
:103DC300007900901B7D123EE2FBEE4B601E088ED5
:103DD300828F83A3A3A3A3124D23601008E870016D
:103DE300098E828F83123EDEEA4F70E3901DB81274
:103DF3004D59C3E89AE99B4003023E9B7A06123E63
:103E03009EA80CA90DEA497003023E9B8A828B830C
:103E1300E508F0A3E509123EBDE50AF0901DB712CF
:103E23004EDD123EB4A3E4F0A3F0901B7D124D23AC
:103E3300600D8E828F83A3A3A3A3126E3980179084
:103E43001B7D126E39901BB7E0A2E34009123EA816
:103E5300901B7F1210BE901BB7E0A2E3503A7A0882
:103E63007B00901B62E0F9121826EA4B4C4D702838
:103E7300901DB5E0F508A3E085080CF50DE4F50EFB
:103E8300F50F780C120DB17A087B00901B62E0F9F4
:103E930012181A7404120DCC026A6B7B0012174EAF
:103EA3008A0C8B0D22121838EAF8EBF9ECFAEDFBC9
:103EB30022123EB822123EBDA322F08A828B83A334
:103EC300A322E508F0024744F08E828F83A3A3A3C5
:103ED300A3A3A3221257D5A3A3F022A3A3A3A3E0D2
:103EE300FEA3E0FF227F05020B58F582E43509F5B6
:103EF30083E0F922EA123EFC222410F582E4221226
:103F03003F0AA3A3A3A3221240A78508828509839E
:103F130022123F1822F0850A82850B83A3A322E590
:103F23000E2411123F48E022E50E240E123F4822D0
:103F3300E50E2410123F48E022123F4022EE123ECB
:103F4300FC3FF58322F582E4350FF58322240FF538
:103F53000AE43509F50B780A22E0F91216CA8A0831
:103F63008B09EA4B2274F2120824890B8A088B0905
:103F73008A828B83124D59121F94EA4B600479B8DD
:103F8300806A121FA0E9F8902EF2E493F9E8C3992E
:103F9300400479B280567A15123E9EAE0CAF0DEAFC
:103FA3004F7004791080458A828B83E4F0A3123E1C
:103FB300BDE50BF0750A007808120DB57C127D0083
:103FC300EA2403126975120DCC901B8312536B7094
:103FD30008901B83800C12409F88828983123FF2D2
:103FE30070F4EEF0A3EFF0121FB27900024E451207
:103FF3004D5DEA4B8882898322C082C083901B83F4
:1040030080048C828D83127697EC4D60288C828D90
:1040130083A3A3E069600574FF6970E68C828D83D6
:10402300A3A3A3E06A7003A3E06B70D6EC2403FAA6
:10403300E43DFB80047A007B00025C3A74F71208CB
:1040430024E9FD74FE6D70047C0180027C00901BEA
:104053008380096D70027C018882898312536B60AF
:104063001F88828983A3A3A3E06A7003A3E06B7014
:10407300E7ECA2E088828983A3A3E050D6F980020B
:1040830079FE024744EEF9800CA3A3127B38EE229B
:104093007402120DCC7F02020B58F5831240A32247
:1040A3001240A722E0F8A3E0F9221240A78E828FE4
:1040B3008322120DCC7F03020B58C082C083790088
:1040C300901B83800109E0FAA3E08A82F583E582ED
:1040D300458370F1025C3A74F6120824E4F508F59E
:1040E300097808120DB9902EF2E49375F013A4A980
:1040F300F01241FA126E97120DCCE9FE74096E703C
:1041030003121FAC02408874F612082474FE120EC8
:1041130065852182852283E4F0A3F0A821A9228862
:104123000889097808120DB975080275090078081D
:10413300120DB9126B08120DCC02409374F51208DC
:104143002474EB120E65852182852283E4F0A3F0AB
:10415300901B8380748E828F83A3A3E0C0E07402DC
:104163001210D5D0E012581CA982AA8389088A09A3
:10417300750A007808120DB57C127D0074061210C2
:10418300D5126E5C120DCC7402120E4D880889098B
:104193007808120DB97508137509007808120DB95E
:1041A30074041210D512530E75F013A4F8AAF07507
:1041B300F013E91241F6126B10120DCC85218285A2
:1041C30022831242058E828F83123EE2EE4F708568
:1041D300A821A922880889097808120DB97508024F
:1041E3007509007808120DB9126B08120DCC7415FD
:1041F3000240B5A42AF9E82402FCE439FD7A427BA3
:104203000022E02401F0A3E03400F02274F4120849
:104213002474EB120E657E007F00A821A922880872
:1042230089097808120DB97508028E097808120DEC
:10423300B97C007D007A42126EA3120DCCE9706C3A
:104243008E0880567402120E4D880A890B780A1262
:104253000DB9750A13750B00780A120DB9E50875C7
:10426300F013A4F8AAF075F013E5091241F6126EE3
:10427300A5120DCCE9701B74031210D5AA82AB836F
:1042830074021210D5E0F9121F8EE970050EEE705C
:10429300010F0508E508700205098521828522833F
:1042A30012409FC3E50898E509994098EEFAEFFBA1
:1042B300741502320D74F61208248C828D83A3A325
:1042C300124511F0EA1261323BF583E0C0E012447B
:1042D300CED0E0F0EA241DF582E43B12409D124467
:1042E300B212450CF0A3F0EA241FF582E43BF583F8
:1042F300123EE2EC1244A53DF583EEF0A3EFF0127B
:1043030044AB3BF5831244DCA3A3A3A3A3A3EEF026
:10431300A3EF125D8DFE8C828D8312451B74035EA9
:10432300FEC394034003024498EE600874026E6077
:10433300030243BD8C828D83E0540CFE740C6E70BB
:10434300030243FCE0A2E4400D88828983E08C826F
:104353008D83A312453174086E60030243FC12443B
:10436300BC7401F08A828B83A3A3A3A3A31257E295
:1043730070148C828D83E0440C124523A3A3124452
:10438300DCEEF0A3EFF08C828D83E0A2E4402B8877
:10439300821244EA1244FF500109F5821244EAA34F
:1043A300A3A3A3A3A3F0A3EF12452B8C828D83A316
:1043B300A3A3F0E82403F850010988828983E0C0AD
:1043C300E0EC2411F582E43DF583D0E012451B8C2B
:1043D300828D83E0A2E7507588828983E0FE8C8218
:1043E3008D8312453174FC5E700C8C828D83A3E047
:1043F30054036403701E0244981244BCE4F0740C2A
:104403006E600302436788821244F01244FF500136
:10441300090243898C828D83A3E05403603288822E
:104423008983E0C0E0EC1244D63DF583D0E0124529
:10443300328C828D83E054036402701488828983F2
:10444300E0C0E01244C4D0E01245328003A3E4F09C
:10445300EC1252DA3D126E37EC2410FEE43DFFEA13
:10446300241DF582E43BF583E0F5088E828F83E01B
:10447300C3982508F508F0EA2417F8E43BF9888285
:10448300F583E0C39508C0E01244B2D0E0125D8D1D
:10449300C39508500A1244B2E4F01244CEE4F00289
:1044A30040982415F582E422EA240DF582E422ECF7
:1044B300240DF582E43DF58322EC1254933DF583FC
:1044C30022EC2414F582E43DF58322EC123EFC3DFC
:1044D300F583222413F582E422E0FEA3E0FF8C821D
:1044E3008D83A3A3A3A3221244F0A3A3228983E071
:1044F300F508A3E0FFE5088C828D8322A3A3A3A381
:10450300F0A3EFF0E82402F822124511A322E4F00D
:104513008C828D83A3A3A322124539A882A9832267
:10452300123EB8A3A3A3A322124539A3E022A312E8
:10453300453908A98322125D96A32274F412082434
:1045430074F3120E658A0A8B0BECFEEDFF8C82F579
:1045530083E0540CF508E0A2E75006E508D2E7F53E
:1045630008E508D2E1F5081257E27006E508D2E43F
:10457300F508E0A2E55006E508D2E5F5087C087DDC
:10458300007900AA21AB221216A074021210D5E5FD
:1045930008126E3DC0E074031210D5D0E0124BCB6D
:1045A300E50AF0A3E50BF074051210D51266A91203
:1045B30010D5E0707774081210D5124B51125D7F3D
:1045C300381266C4C0E074081210D5124652D0E007
:1045D3001266A4C0E074081210D5124648D0E0F069
:1045E30074081210D512463EE0124B79124BFA12A0
:1045F3006193EE24111257AEC0E0124634D0E0F0BE
:10460300EE24141257AEC0E074081210D5124B51A9
:104613002435F582E438F583D0E0124B9EC0E07474
:10462300081210D5124B55D0E01263FD740D0232FF
:104633000DE82432F582E439F583221240ADA3A3B9
:10464300A3A3A3A322124B651268A338F5832212F6
:104653004B652426F582E438F5832274F712082487
:104663007E008A828B83A3A3A3A3A3A3A3A3A3E014
:104673006404600302472012548BE0600302472066
:104683001252ED3B125369700302472088828983DB
:10469300E054036003024720E812549339F583E0A2
:1046A300FA8C828D83A3A3E0FBA3E0CB2411F582D4
:1046B300E43BF583E06A706588828983A3A3A3A39F
:1046C300A3A3A3A3A3124724E06A7003A3E06B7020
:1046D3004C88828983A3A3124730E0FFA3E0CF2451
:1046E300061257AE6A7003A3E06B70318882898328
:1046F300A3A3E0F88C828D83A3A3E0F9A3E0F58361
:104703008982A3A3E06860138C828D83A3A3A3E0B3
:10471300F5838982E0540C640470027E01EEF98013
:104723002012472822124D618C828D8322A3A3126B
:104733004728A3A322740C1210D5E0F9740D120DAF
:10474300CC7F01020B5874F612082474FC120E6518
:10475300EAFEEBFFECFAEDFB8C82F583A3E0540356
:104763006016901B7912536B60597900EEFCEFFDD4
:10477300125F8A1227D3804B852182852283EEF034
:10478300A3EFF074021210D5124BC0AC21AD227A04
:10479300CA7B1F1221F28A088B09A808A909EA49D2
:1047A30060218A828B83A3A3A3A3A3A3A3A3A3743C
:1047B30006F07A0088828B83124B51126153E0F921
:1047C300122150740402409574F212082474F312F7
:1047D3000E65EAFEEBFF8A82F583A3A3A3A3A3A33B
:1047E300A3A3A3A3E0F50A901DC6E0700579BA025E
:1047F3004B09750801750900750C00750D007C08DF
:104803007D007900AA21AB221216A074051210D5DF
:104813007401124BD35404601274021210D5E0D207
:10482300E6124BD354087003750803E05410600676
:1048330074404508F508E05408602274021210D54C
:10484300E044C0124BD35420600A74031210D5E025
:10485300D2E0800874031210D5E0D2E1F0EE241503
:104863001257AE124B397003740169700674084510
:1048730008F5088E828F83A3A3A3A3A3A3A3A3E016
:10488300701612224C8521828522831261A0740244
:104893001210D5E0D2E28030640F7010740212104F
:1048A300D5124BDB74044508F508807F8E828F8315
:1048B300A3A3A3A3A3A3A3A3E064028E828F837005
:1048C3000A126E70E8F0A3E9F08060A3A3A3A3A388
:1048D300A3A3A3E06403700DAC21AD22EEFAEFFBBA
:1048E30012200080468E828F83A3A3A3A3A3A3A336
:1048F300A3E064017035901C0DE060107402121087
:10490300D5124BDB750910750AFF8018740212105B
:10491300D5E0440C124BCB74FDF0A374FFF0740488
:104923004508F5088E828F83123120EE2415125725
:10493300AEA2E0503F74021210D5E0540C701B8EEF
:10494300828F83124D59121C82E9700579BB024B89
:104953000974021210D5E0D2E5F0EE24151257AE19
:10496300A2E0501074021210D5E0540C64047004D9
:10497300E0D2E5F0EE24111257AEC0E07404121039
:10498300D5D0E01266AB1210D5E06003024B02747F
:10499300081210D5124B94E508F0A3E509F0124B69
:1049A3002FE0C0E0124B25D0E0F0124B16E0C0E040
:1049B30074081210D5124B511244D638F583D0E047
:1049C300124BFA64017011901C0DE0C0E0740812E0
:1049D30010D5124B6FD0E0F074081210D5124B8F24
:1049E300124B20FAE8241CF582E439F583EA124BD2
:1049F300C6EE2415FAE43FFB8A82F583127697E824
:104A0300125AEA39F583124BC0EE241C1257AEC07A
:104A1300E0124B0CD0E0125C30124B39700374017E
:104A230069701374081210D512547BFAEE241D1208
:104A330057AEF9121ED48E828F83A3A3A3A3A3A37D
:104A4300A3A3A3E0C0E074081210D5124652D0E02D
:104A5300F074081210D5124648E50AF074081210D3
:104A6300D512530E2428F582E439F583E50CF0A31F
:104A7300E50D124BA6124B79125827126193EE12D1
:104A83004B20C0E0E82433F582E439F583D0E0F02D
:104A9300EE241B1257AEC0E074081210D5124B550A
:104AA300D0E0F0EE241A1257AEC0E074081210D50D
:104AB300124B512432F582E438F583D0E0124B9E39
:104AC300124B45120DB51268A9127697740B12108A
:104AD300D5124B51242F127B73120DCCEE241512D9
:104AE30057AE54406012901B9912536B600AAA216F
:104AF300AB22125F8A1227D3AA21AB22122072742F
:104B03000C1210D5E0F9024E40E82420F582E43976
:104B1300F58322EE2419F582E43FF583221268B867
:104B2300E022E82412F582E439F58322EE2418F515
:104B330082E43FF583225480F8A3E05401F97480A2
:104B43006822F508A3E0F509750A00780822124BDC
:104B53006522124B652434F582E438F58322A3A33E
:104B6300A3A3124B6922E0F8A3E0C822124B6512FB
:104B730044A538F58322FAA3E0FBE8242AF582E46E
:104B830039F583EAF0A3EB22A3A3A3A31240A3EE78
:104B9300221253121252F239F58322F0EE24131229
:104BA300582F22F0EE240D12582F22E0FC8A828B1C
:104BB30083E02CFCA3E03400FD8A828B83ECF0A31A
:104BC300EDF022F0A3E4F022F085218285228322F6
:104BD300F0EE241512582F22E0D2E3F0124BE32219
:104BE3008E828F831240A7852182852283E8F0A3DA
:104BF300E9F022E8F0A3E91262E6E02274F7120872
:104C0300248A828B83A3E0640170047E6380027E26
:104C1300648A828B83E060087905124C3324F3FEA7
:104C2300901BB5E06007F9124C3324F2FE024720D3
:104C330012211AE9F8EEC3982274F612082474FEBE
:104C4300120E658521828522831261A0E9FEECFAAA
:104C5300EDFB90058212536B6032A821A9228808CC
:104C630089097808120DB97D01740E1210D5E0FC84
:104C7300EEF99005821261741227D37402120DCCDF
:104C8300EA4B60047900800679B2800279B602406B
:104C93009374F7120824E9FE901B6F12536B601F85
:104CA30074091210D5E0F5087808120DBDEEF990DD
:104CB3001B6F1261741227D37401120DCC80027919
:104CC300B602474474F71208248908ECFEEDFF7915
:104CD300B5E508245E602014600624F86034803D46
:104CE300900584124D236035126EB41227D38E8241
:104CF3008F831261A08024901B71127697EC4D6014
:104D03001CEEFCEFFD901B711261741227D3E9F9BD
:104D1300800B901B6D124D291218507900024744E5
:104D2300124D5DEA4B2212769BEEFAEFFB2274F7EB
:104D3300120824E9FE79B574AB6E700B901B6D12EB
:104D43004D5912185079000247448E828F83A3A3D2
:104D5300A3A3A3A3A3A3124D5D22124D6122E0FAE4
:104D6300A3E0FB2274F1120824EAFEEBFF8C0A8D08
:104D73000B750801901BBDE06E7003A3E06F700C10
:104D8300124E34AA0AAB0B121850805E122252EE56
:104D93006A7002EF6B7009AA0AAB0B122258804AA1
:104DA300AC0AAD0BEEFAEFFB121DA8E9F508901D56
:104DB300BDE070361226DEE97030E508702C901BDA
:104DC3008DE06E7003A3E06F7020EE4F601C750CD6
:104DD30085750D1B750E00780C120DB57C087D00D2
:104DE300AA0AAB0B126E60120DCCA908027793745A
:104DF300F2120824EAFEEBFF8C088D09750A0112F2
:104E03004E34EEFAEFFB12184AE964017011901B5D
:104E1300BD12409F850882850983126E39800EACCE
:104E230008AD09EEFAEFFB121DAEE9F50AA90A80F7
:104E3300111222468A0C8B0DAC0CAD0D22740D128F
:104E43000DCC7F06020B5874F6120824EAFEEBFF22
:104E53007A0D7B0012174EEA4B6062EE2424126B2C
:104E63003DF0EE2425126B3DA3124F02126B43A3B8
:104E7300A31268D6124EDDF0EE124EC3124EF2E8C4
:104E8300F0A3E9124F19124EEA126E39EE124ECC0C
:104E9300126999A3A3A3A3F0EE24331257AEC0E083
:104EA300124ED5D0E01266C8124EEAA3A3A3E8F0CF
:104EB300A3E9124F11C0E012548BD0E0F0024098E6
:104EC300242AF582E43FF58322242EF582E43FF57C
:104ED3008322EA1259043BF58322124EE122E08A2F
:104EE300828B83A3A3A3221269F8A3A3A3A32212F1
:104EF3004EF6221240A78A828B83A3A3A3A322F098
:104F0300124F0722EE2426F582E43FF58322F0EECA
:104F1300243212582F22F0EE242C12582F2274F42C
:104F230012082474FE120E65ECFEEDFFEC2416123B
:104F330057AE64057010EC2406FCE43FFD121FFA23
:104F4300E97003024FCDAC21AD22126BF2121C8823
:104F530085218285228312536B606B8E828F83E05F
:104F630064017058E875F009A4F8AAF075F009E92E
:104F7300A42AF974E628F8740839F9E8FAE9FB88F1
:104F830082F583780812107EEE12506F12101240D1
:104F930027852182852283124B8F1257BC124FD251
:104FA300780812107E9087537808120F498A828BF3
:104FB30083780812106F800A79A28010EE240F12F2
:104FC3006E337900800679A1800279C802320B1210
:104FD3004BF0EE1268C42274F21208248A0C8B0D73
:104FE300ECFEEDFFEC1257BCE4F0A3F090872F78B2
:104FF3000812107EEC12506F120E916067EC240EB3
:105003001257B5703478B3901BB4E07028901BE648
:10501300E064017020EC24111257AEF91221028BC7
:1050230009A909EE1252EE3F12619EEA4960047823
:1050330000800278A18808802EE060046402700A70
:1050430012200CE9F5087007801DE064037010EE70
:10505300FCEFFDAA0CAB0D121CACE9F5088008753A
:1050630008A180037508A3A908024E451268C478F5
:10507300082274F012082474F5120E65EAFEEBFFA1
:10508300EA240AFCE43F8C82F583127B341252F843
:105093007403120E5D8A828B83125F94E97003029C
:1050A300515E7401120E5D7403120E55121C887446
:1050B300011210D512536B700302515EE875F009AB
:1050C300A4F8AAF075F009E9A42AF974E228FC749B
:1050D3000839FDE508240E1263E5E4F0041210D547
:1050E30012409FE5081252EE3509126E378C828DFD
:1050F300831210B2E50824121263E51210BE9087E2
:1051030053780812107E8C828D837808120FA88C36
:10511300828D83780C12107E9087B7780812107EE8
:10512300780C79081207B5E5084509450A450B705F
:105133002A74011210D512530E75F009A4F8AAF0BF
:1051430075F009E9A42AF974EA28F582740839F597
:10515300837401F07A007B0812531B8E828F83A322
:10516300A3A3A3A3A3A3A3A3A3E02406FCA3E034C4
:1051730000FD8E828F83125F941266B6603EEE242A
:105183000A1252E0124B947468124BC6E81252DAB8
:1051930039F5837402F0901B9F1210B28C828D83B9
:1051A30012618D125D7F3CF5831210BE9087537898
:1051B3000812107E901B9F7808120FA81253567086
:1051C3005D901B6D125306A3A3A3A3A3A3A3A3A341
:1051D300A3125DB512184AE97010125D73901B6D2E
:1051E300125D8570051266B660348E828F83A3A329
:1051F300A3A3A3A3A3A3A3A3125306124D59121C43
:10520300B2E960118E828F83A3A3A3A3A3A3125336
:1052130042E4F0A3F08E828F83125328E4F01253FA
:105223005660030252D58E828F83A3A3A3A3A3A3A5
:10523300127B30901BB4E060030252CA901BE6E07D
:10524300640160030252CA750A3A750B00780A12A8
:105253000DB97402120E4D880A890B780A120DB922
:1052630012712F120DCCE9705BE508240E1263E571
:105273007401125370C0E0E50824111263E5D0E015
:10528300F0E508240F1263E5743A124BC6901B9B9A
:105293001210B2E50824121263E51210BE90875370
:1052A300780812107E901B9B7808120FA8908753E2
:1052B300780812107E901B9B7808120E91700812CA
:1052C300531780031252F81253567006125C767409
:1052D300A1F0740B026A68240EF582E422F8E43F1D
:1052E300F9E8FCE9FD8882F58322EA1252F22224CE
:1052F3000FF582E422E5081252F23509F583E4F052
:10530300A3F02212769B8E828F83221253122212D3
:1053130040A7E8227A007B02901A46E0F91216F4BD
:10532300228A828B83A3A3A3A3A3A3A3A3A3A312CE
:10533300533622124B69240EF582E438F58322A3F7
:10534300A3A3A312534A22124B69240FF582E43814
:10535300F583228E828F83A3A3A3A3A3A3124B61FE
:10536300240FF582E438F583125312492212537441
:1053730022F0852182852283E02274F6120824EA32
:10538300FEEBFF7A237B0012174EEE240AF508E4A6
:105393003FF50985088212619E7C237D0079001206
:1053A30016A085088285098312536B700302543E4D
:1053B300EEFAEFFB12201812535660748E828F831D
:1053C30012547164018E828F83A3A3A3A3A3A3703A
:1053D30007125467740E802112536B70101266B655
:1053E300700B8E828F83A3A3E0A2E0500712545D5B
:1053F300740D800512545D74051266C8540364016C
:1054030070071254457405800B901BB5E0C0E01281
:105413005445D0E0125480F58388821257DB850807
:1054230082850983124B5112613238F583E9800E6C
:10543300850882850983126217800312615AF0027C
:1054430040988E828F83A3A3A3A3A3A3A3A3A3A301
:1054530012545722E0126179A3228E828F83A3A371
:10546300A3A3A3A3124B6112613838F58322A3A32C
:10547300A3A3A3A3A3A3A3A3125336E0221254848A
:1054830022126C07F8A3E022EA1254933BF583221D
:10549300240CF582E42274F112082474E4120E65DC
:1054A3008A0C8B0D8C088D097A237B0012174E8A88
:1054B3000A8B0BAE0AAF0BEA4F70030257961261C9
:1054C3003EE50824151257C7687003A3E0698E826E
:1054D3008F837004740280027401F0E508240DF8D0
:1054E300E43509F98882F583E0FAC3E49AFA95E092
:1054F300FB1257C32AFAA3E03BFB8E828F83A3A33D
:10550300A3A3125D9C8E828F83A3A3F0EE2420F5C8
:1055130082E43FF583E4F0EE2421F582E43FF58352
:10552300E4F0EEFAEFFB1220CC85088285098312A2
:1055330057E270098E828F83A374058006901BB592
:105543001257D0F0EE2417F50AE43FF50B8E828F45
:10555300831257DBE9850A82850B83F0EE2416F864
:10556300E43FF9E508240EFAE43509FB88828983D0
:10557300124BAEE5082410FAE43509FB850A82854F
:105583000B83E0FC88828983E0F88A828B83E0C303
:1055930098C39CF812581CF0EEFCEFFDAA0CAB0D5F
:1055A300122012E9F50B8E828F83E06402700612DB
:1055B3005D731257A0E50B600302578D750C0075E0
:1055C3000D00901DBDE064016005E06402703F12B0
:1055D30057B26008EE24211257B570328E828F8342
:1055E300A3A3A31261601257E8EE24161257AE125A
:1055F3005811FAE439FB123EA0EA4B60111269C25A
:10560300120DB51257F6AA0C126E60120DCCEEFAFB
:10561300EFFB1220D8E9F50B901DBDE06401600893
:10562300E064026003025780E97003025780E50CCF
:10563300450D700302578D8003850E0B1257B26020
:105643000BEE24211257B56003025786850B0E8596
:105653000C08850D09750A007808120DB51257F666
:105663008E828F83A3A3A3A3127B79120DCCEE2486
:10567300201257AE600D1257BB7468124BC6EE244E
:10568300208015EE24211257AE60151257BB740308
:10569300F0A37401F0EE2421F582E43FF583E4F0F6
:1056A300EEFAEFFB1220D8E9F50B70907C137D0026
:1056B30079007409120E551216A0741A1210D574BB
:1056C3000112582764687002A3E0704F8E828F83A3
:1056D300125342E06405600302563C7C0879FF8E56
:1056E300828F83A3A3A3A3E0242A125DB812172AEF
:1056F300E9700302563C7C087D0079FF7401120EA9
:10570300551216A07401120E5D7A007B0079AB125C
:105713001FF474191210D574FC80151257BBE06482
:10572300037004A3E06401700874191210D574FFA8
:10573300F0E4F508F5097808120DB97402120E5D4C
:1057430074131210D5AA82AB8312629D120DCC85FD
:105753002182852283E0602B7409120E4D8808890B
:10576300097808120DB97508137509007808120D28
:10577300B97C007D00126B10120DCC8006E50C4540
:105783000D6007AA0CAB0D121754EEFAEFFB1217BC
:10579300548003750B10A90B741C027790EE24063A
:1057A300FAE43FFB12185022EE240C12582F22EE7B
:1057B300242012582F640122EE1252F23FF5832265
:1057C300E508240EF582E43509F583E0221257D566
:1057D300A322E08E828F8322A3E0F912211A22E012
:1057E30054036401221257EC22E0FAE82AF8E43465
:1057F30000F9228E828F83A3A3A31261641257EC54
:10580300EE241612582F125811FCE439FD22FAE83F
:105813002AF8E439F9E8240422125820221266D720
:10582300A3A3A322F012582C22EE240FF582E43F07
:10583300F583E0227901020D7C74F4120824EAFE58
:10584300EBFF8A82F583A3A3A3A3A3A3A3A3124B72
:10585300512424F582E438F5831257E2702E8A82AC
:105863008B83125471702512590AE06405701D125E
:10587300590AA3E0F874016860057406687007129A
:105883005324740280051253247403F0EA240A1289
:10589300620B126174E4F0EA2408F8E43F1231FA6F
:1058A3002431F582E43AF583E0C0E0126EABA3A3A2
:1058B300D0E0125929CA242EF582E43AF583E0C0D8
:1058C300E0126EABA3A3A3D0E0125E4FC81259043B
:1058D3003812409D126EAB12591E8A0A8B0BAC0A0A
:1058E300AD0B850882850983125DB51218508508B2
:1058F30082850983124D591220D8126206F00232B2
:1059030010240BF582E4228A828B83A3A3A3A3A38F
:10591300A3A3A312669DF583888222A3A3A3A31244
:105923004BF012224622125D91FAA3E0220258376D
:10593300C082C083901B8F741EF0A37420F0901B51
:1059430091742AF0A37420F0901B937430F0A37425
:1059530020F0901B957424F0A37420F0025C3A7439
:10596300F4120824EA2408FEE43BFF8E82F5831236
:10597300530E12614AE0F50874035508F509125DE8
:10598300B0F8A3E08882F583E508F0A3A882A98391
:10599300E5096009740265096003025A4F740C55E6
:1059A30008FC600A74086C600574046C7026740249
:1059B30065097006E508A2E4401A8A828B83A3A3D3
:1059C300A3A3A3A3A3A3125B551268A33D125AF08A
:1059D300A308A983740C6C701C125B512428125BFE
:1059E3003D2428F582E43DF583A31264D1F0E82435
:1059F30002F8500109740265097006E508A2E44043
:105A03004B125B51242A125B3D242AF582E43DF5B7
:105A130083A3125AFF125B5B1264D1125B5BA31266
:105A23005AF7E82404F8500109EC600F74086C601D
:105A33000A740C6C600574046C7011126181242665
:105A4300F582E43C125AF0A3A882A9838A828B834D
:105A5300A3A3A3A3A3A3A3A3125B1F54037014E5DF
:105A630008A2E1400E126181125AEA3CF583E05428
:105A7300806008125B05125AF28019901B63E0C024
:105A8300E0125B05D0E0125B3288828983125B32BD
:105A930004125D96A3A882A983E508A2E750458E68
:105AA300828F83125B1F88828983125B38125B2487
:105AB300540360301261812434F582E43C1264CFD4
:105AC300F0E508A2E1501D8A828B83A3A3A3A3A3BD
:105AD300A3A3A31231FF2435F582E43A1264CFA3C2
:105AE300F0E82403023210241EF582E422F5831227
:105AF3005AFFF022125AFFA3A3A3F022E08882895F
:105B030083228A828B83A3A3A3A3A3A3A3A3E0FCDF
:105B1300A3E0CC2432F582E43CF58322E0125B243B
:105B230022FCA3E0CC2425F582E43CF583E022F0BB
